{
  "contractName": "ToDoContract",
  "abi": [
    {
      "inputs": [],
      "stateMutability": "nonpayable",
      "type": "constructor"
    },
    {
      "anonymous": false,
      "inputs": [
        {
          "indexed": false,
          "internalType": "uint256",
          "name": "id",
          "type": "uint256"
        },
        {
          "indexed": false,
          "internalType": "string",
          "name": "content",
          "type": "string"
        },
        {
          "indexed": false,
          "internalType": "bool",
          "name": "completed",
          "type": "bool"
        }
      ],
      "name": "TaskAdded",
      "type": "event"
    },
    {
      "inputs": [],
      "name": "taskCount",
      "outputs": [
        {
          "internalType": "uint256",
          "name": "",
          "type": "uint256"
        }
      ],
      "stateMutability": "view",
      "type": "function",
      "constant": true
    },
    {
      "inputs": [
        {
          "internalType": "uint256",
          "name": "",
          "type": "uint256"
        }
      ],
      "name": "tasks",
      "outputs": [
        {
          "internalType": "uint256",
          "name": "id",
          "type": "uint256"
        },
        {
          "internalType": "string",
          "name": "content",
          "type": "string"
        },
        {
          "internalType": "bool",
          "name": "completed",
          "type": "bool"
        }
      ],
      "stateMutability": "view",
      "type": "function",
      "constant": true
    },
    {
      "inputs": [
        {
          "internalType": "string",
          "name": "_content",
          "type": "string"
        }
      ],
      "name": "addTask",
      "outputs": [],
      "stateMutability": "nonpayable",
      "type": "function"
    },
    {
      "inputs": [
        {
          "internalType": "uint256",
          "name": "_id",
          "type": "uint256"
        }
      ],
      "name": "updateTask",
      "outputs": [],
      "stateMutability": "nonpayable",
      "type": "function"
    }
  ],
  "bytecode": "0x6080604052600080553480156200001557600080fd5b506200005c6040518060400160405280601781526020017f4465706c6f79656420536d61727420436f6e74726163740000000000000000008152506200006260201b60201c565b6200061f565b600080815480929190620000769062000170565b919050555060405180606001604052806000548152602001828152602001600015158152506001600080548152602001908152602001600020600082015181600001556020820151816001019081620000d091906200042d565b5060408201518160020160006101000a81548160ff0219169083151502179055509050507f21807e0d6dbaf49ba098938b6b472ebe4bf827bb2f6e95acbef0c69d42ec84396000548260006040516200012c93929190620005db565b60405180910390a150565b7f4e487b7100000000000000000000000000000000000000000000000000000000600052601160045260246000fd5b6000819050919050565b60006200017d8262000166565b91507fffffffffffffffffffffffffffffffffffffffffffffffffffffffffffffffff8203620001b257620001b162000137565b5b600182019050919050565b600081519050919050565b7f4e487b7100000000000000000000000000000000000000000000000000000000600052604160045260246000fd5b7f4e487b7100000000000000000000000000000000000000000000000000000000600052602260045260246000fd5b600060028204905060018216806200023f57607f821691505b602082108103620002555762000254620001f7565b5b50919050565b60008190508160005260206000209050919050565b60006020601f8301049050919050565b600082821b905092915050565b600060088302620002bf7fffffffffffffffffffffffffffffffffffffffffffffffffffffffffffffffff8262000280565b620002cb868362000280565b95508019841693508086168417925050509392505050565b6000819050919050565b60006200030e62000308620003028462000166565b620002e3565b62000166565b9050919050565b6000819050919050565b6200032a83620002ed565b62000342620003398262000315565b8484546200028d565b825550505050565b600090565b620003596200034a565b620003668184846200031f565b505050565b5b818110156200038e57620003826000826200034f565b6001810190506200036c565b5050565b601f821115620003dd57620003a7816200025b565b620003b28462000270565b81016020851015620003c2578190505b620003da620003d18562000270565b8301826200036b565b50505b505050565b600082821c905092915050565b60006200040260001984600802620003e2565b1980831691505092915050565b60006200041d8383620003ef565b9150826002028217905092915050565b6200043882620001bd565b67ffffffffffffffff811115620004545762000453620001c8565b5b62000460825462000226565b6200046d82828562000392565b600060209050601f831160018114620004a5576000841562000490578287015190505b6200049c85826200040f565b8655506200050c565b601f198416620004b5866200025b565b60005b82811015620004df57848901518255600182019150602085019450602081019050620004b8565b86831015620004ff5784890151620004fb601f891682620003ef565b8355505b6001600288020188555050505b505050505050565b6200051f8162000166565b82525050565b600082825260208201905092915050565b60005b838110156200055657808201518184015260208101905062000539565b8381111562000566576000848401525b50505050565b6000601f19601f8301169050919050565b60006200058a82620001bd565b62000596818562000525565b9350620005a881856020860162000536565b620005b3816200056c565b840191505092915050565b60008115159050919050565b620005d581620005be565b82525050565b6000606082019050620005f2600083018662000514565b81810360208301526200060681856200057d565b9050620006176040830184620005ca565b949350505050565b610a52806200062f6000396000f3fe608060405234801561001057600080fd5b506004361061004c5760003560e01c80633014029114610051578063672385621461006d5780638d97767214610089578063b6cb58a5146100bb575b600080fd5b61006b60048036038101906100669190610400565b6100d9565b005b61008760048036038101906100829190610573565b610222565b005b6100a3600480360381019061009e9190610400565b6102f1565b6040516100b29392919061066e565b60405180910390f35b6100c36103b0565b6040516100d091906106ac565b60405180910390f35b60006001600083815260200190815260200160002060405180606001604052908160008201548152602001600182018054610113906106f6565b80601f016020809104026020016040519081016040528092919081815260200182805461013f906106f6565b801561018c5780601f106101615761010080835404028352916020019161018c565b820191906000526020600020905b81548152906001019060200180831161016f57829003601f168201915b505050505081526020016002820160009054906101000a900460ff161515151581525050905080604001511581604001901515908115158152505080600160008481526020019081526020016000206000820151816000015560208201518160010190816101fa91906108d3565b5060408201518160020160006101000a81548160ff0219169083151502179055509050505050565b600080815480929190610234906109d4565b91905055506040518060600160405280600054815260200182815260200160001515815250600160008054815260200190815260200160002060008201518160000155602082015181600101908161028c91906108d3565b5060408201518160020160006101000a81548160ff0219169083151502179055509050507f21807e0d6dbaf49ba098938b6b472ebe4bf827bb2f6e95acbef0c69d42ec84396000548260006040516102e69392919061066e565b60405180910390a150565b600160205280600052604060002060009150905080600001549080600101805461031a906106f6565b80601f0160208091040260200160405190810160405280929190818152602001828054610346906106f6565b80156103935780601f1061036857610100808354040283529160200191610393565b820191906000526020600020905b81548152906001019060200180831161037657829003601f168201915b5050505050908060020160009054906101000a900460ff16905083565b60005481565b6000604051905090565b600080fd5b600080fd5b6000819050919050565b6103dd816103ca565b81146103e857600080fd5b50565b6000813590506103fa816103d4565b92915050565b600060208284031215610416576104156103c0565b5b6000610424848285016103eb565b91505092915050565b600080fd5b600080fd5b6000601f19601f8301169050919050565b7f4e487b7100000000000000000000000000000000000000000000000000000000600052604160045260246000fd5b61048082610437565b810181811067ffffffffffffffff8211171561049f5761049e610448565b5b80604052505050565b60006104b26103b6565b90506104be8282610477565b919050565b600067ffffffffffffffff8211156104de576104dd610448565b5b6104e782610437565b9050602081019050919050565b82818337600083830152505050565b6000610516610511846104c3565b6104a8565b90508281526020810184848401111561053257610531610432565b5b61053d8482856104f4565b509392505050565b600082601f83011261055a5761055961042d565b5b813561056a848260208601610503565b91505092915050565b600060208284031215610589576105886103c0565b5b600082013567ffffffffffffffff8111156105a7576105a66103c5565b5b6105b384828501610545565b91505092915050565b6105c5816103ca565b82525050565b600081519050919050565b600082825260208201905092915050565b60005b838110156106055780820151818401526020810190506105ea565b83811115610614576000848401525b50505050565b6000610625826105cb565b61062f81856105d6565b935061063f8185602086016105e7565b61064881610437565b840191505092915050565b60008115159050919050565b61066881610653565b82525050565b600060608201905061068360008301866105bc565b8181036020830152610695818561061a565b90506106a4604083018461065f565b949350505050565b60006020820190506106c160008301846105bc565b92915050565b7f4e487b7100000000000000000000000000000000000000000000000000000000600052602260045260246000fd5b6000600282049050600182168061070e57607f821691505b602082108103610721576107206106c7565b5b50919050565b60008190508160005260206000209050919050565b60006020601f8301049050919050565b600082821b905092915050565b6000600883026107897fffffffffffffffffffffffffffffffffffffffffffffffffffffffffffffffff8261074c565b610793868361074c565b95508019841693508086168417925050509392505050565b6000819050919050565b60006107d06107cb6107c6846103ca565b6107ab565b6103ca565b9050919050565b6000819050919050565b6107ea836107b5565b6107fe6107f6826107d7565b848454610759565b825550505050565b600090565b610813610806565b61081e8184846107e1565b505050565b5b818110156108425761083760008261080b565b600181019050610824565b5050565b601f8211156108875761085881610727565b6108618461073c565b81016020851015610870578190505b61088461087c8561073c565b830182610823565b50505b505050565b600082821c905092915050565b60006108aa6000198460080261088c565b1980831691505092915050565b60006108c38383610899565b9150826002028217905092915050565b6108dc826105cb565b67ffffffffffffffff8111156108f5576108f4610448565b5b6108ff82546106f6565b61090a828285610846565b600060209050601f83116001811461093d576000841561092b578287015190505b61093585826108b7565b86555061099d565b601f19841661094b86610727565b60005b828110156109735784890151825560018201915060208501945060208101905061094e565b86831015610990578489015161098c601f891682610899565b8355505b6001600288020188555050505b505050505050565b7f4e487b7100000000000000000000000000000000000000000000000000000000600052601160045260246000fd5b60006109df826103ca565b91507fffffffffffffffffffffffffffffffffffffffffffffffffffffffffffffffff8203610a1157610a106109a5565b5b60018201905091905056fea26469706673582212203a20fb73054728f82bfc1ee9415947919834d1dd5f2b59844a49fa76338bc7cc64736f6c634300080f0033",
  "immutableReferences": {},
  "source": "// SPDX-License-Identifier: MIT\npragma solidity >=0.5.0 <0.9.0;\n\ncontract ToDoContract {\n  constructor() {\n    addTask(\"Deployed Smart Contract\");\n  }\n\n  uint public taskCount = 0;\n\n  struct Task {\n    uint id;\n    string content;\n    bool completed;\n  }\n\n  event TaskAdded(\n    uint id,\n    string content,\n    bool completed\n  );\n\n  mapping(uint => Task) public tasks;\n\n  function addTask(string memory _content) public {\n    taskCount++;\n    tasks[taskCount] = Task(taskCount, _content, false);\n    emit TaskAdded(taskCount, _content, false);\n  }\n\n  function updateTask(uint _id) public {\n    Task memory _task = tasks[_id];\n    _task.completed = !_task.completed;\n    tasks[_id] = _task;\n  }\n}\n",
  "sourcePath": "/Users/chetra_seng/to-do-dApp/contracts/ToDoContract.sol",
  "compiler": {
    "name": "solc",
    "version": "0.8.15+commit.e14f2714.Emscripten.clang"
  },
  "schemaVersion": "3.4.8",
  "updatedAt": "2022-08-13T09:56:08.297Z",
  "networkType": "ethereum",
  "devdoc": {
    "kind": "dev",
    "methods": {},
    "version": 1
  },
  "userdoc": {
    "kind": "user",
    "methods": {},
    "version": 1
  }
}